---
http_interactions:
- request:
    method: get
    uri: https://mempool.space/signet/api/address/miWUVwvAChPzRkXKiYLfcNejxBteZwrNdF/utxo
    body:
      encoding: US-ASCII
      string: ''
    headers:
      Accept-Encoding:
      - gzip;q=1.0,deflate;q=0.6,identity;q=0.3
      Accept:
      - "*/*"
      User-Agent:
      - Ruby
      Host:
      - mempool.space
  response:
    status:
      code: 200
      message: OK
    headers:
      Server:
      - nginx
      Date:
      - Tue, 08 Jul 2025 00:33:18 GMT
      Content-Type:
      - application/json
      Content-Length:
      - '508'
      Connection:
      - keep-alive
      Cache-Control:
      - no-cache
      - public
      X-Powered-By:
      - mempool-electrs 3.2.0-dev-6cb9bec
      Access-Control-Allow-Origin:
      - "*"
      Expires:
      - Tue, 08 Jul 2025 00:33:17 GMT
      Onion-Location:
      - http://mempoolhqx4isw62xs7abwphsq7ldayuidyx2v2oethdhhj6mlo2r6ad.onion/signet/api/address/miWUVwvAChPzRkXKiYLfcNejxBteZwrNdF/utxo
      Strict-Transport-Security:
      - max-age=63072000; includeSubDomains; preload
      Content-Security-Policy:
      - frame-ancestors 'self'
      Pragma:
      - public
      Vary:
      - Accept-Language
      - Cookie
    body:
      encoding: UTF-8
      string: '[{"txid":"5795afe919ae2836b84c37db853d328cf96b5fe37557be58d1cd4c348aef7a70","vout":1,"status":{"confirmed":true,"block_height":259504,"block_hash":"0000000ad3a575df0f6ba9f730a03d5fd3f5f7e035a566c06430f0ea6bf70352","block_time":1751866966},"value":98114},{"txid":"242ed44dae9f3d2e3c56d7fea7fb2e8b7d4044f4154d377c8a4df11db9e0c608","vout":1,"status":{"confirmed":true,"block_height":259503,"block_hash":"0000000e8ff8fcd69ce12fca1df3f9c5a04a1590aed728d146760921b7ce191f","block_time":1751866162},"value":330028}]'
  recorded_at: Tue, 08 Jul 2025 00:33:18 GMT
- request:
    method: get
    uri: https://mempool.space/signet/api/v1/fees/recommended
    body:
      encoding: US-ASCII
      string: ''
    headers:
      Accept-Encoding:
      - gzip;q=1.0,deflate;q=0.6,identity;q=0.3
      Accept:
      - "*/*"
      User-Agent:
      - Ruby
      Host:
      - mempool.space
  response:
    status:
      code: 200
      message: OK
    headers:
      Server:
      - nginx
      Date:
      - Tue, 08 Jul 2025 00:33:18 GMT
      Content-Type:
      - application/json; charset=utf-8
      Content-Length:
      - '74'
      Connection:
      - keep-alive
      X-Powered-By:
      - Express
      Access-Control-Allow-Origin:
      - "*"
      Access-Control-Allow-Methods:
      - GET, POST, PUT, DELETE, OPTIONS
      Access-Control-Allow-Headers:
      - Accept,Authorization,Cache-Control,Content-Type,DNT,If-Modified-Since,Keep-Alive,Origin,User-Agent,X-Requested-With
      Access-Control-Expose-Headers:
      - X-Total-Count,X-Mempool-Auth
      Etag:
      - W/"4a-vIMEe4HbKcWV2TFDqJqoL1KtrQE"
      Expires:
      - Tue, 08 Jul 2025 00:33:28 GMT
      Cache-Control:
      - max-age=10
      - public
      Onion-Location:
      - http://mempoolhqx4isw62xs7abwphsq7ldayuidyx2v2oethdhhj6mlo2r6ad.onion/signet/api/v1/fees/recommended
      Strict-Transport-Security:
      - max-age=63072000; includeSubDomains; preload
      Content-Security-Policy:
      - frame-ancestors 'self'
      Pragma:
      - public
      Vary:
      - Accept-Language
      - Cookie
    body:
      encoding: UTF-8
      string: '{"fastestFee":5,"halfHourFee":5,"hourFee":5,"economyFee":2,"minimumFee":1}'
  recorded_at: Tue, 08 Jul 2025 00:33:19 GMT
- request:
    method: get
    uri: https://mempool.space/signet/api/tx/5795afe919ae2836b84c37db853d328cf96b5fe37557be58d1cd4c348aef7a70
    body:
      encoding: US-ASCII
      string: ''
    headers:
      Accept-Encoding:
      - gzip;q=1.0,deflate;q=0.6,identity;q=0.3
      Accept:
      - "*/*"
      User-Agent:
      - Ruby
      Host:
      - mempool.space
  response:
    status:
      code: 200
      message: OK
    headers:
      Server:
      - nginx
      Date:
      - Tue, 08 Jul 2025 00:33:20 GMT
      Content-Type:
      - application/json
      Transfer-Encoding:
      - chunked
      Connection:
      - keep-alive
      Vary:
      - Accept-Encoding
      - Accept-Language
      - Cookie
      Cache-Control:
      - no-cache
      - public
      X-Powered-By:
      - mempool-electrs 3.2.0-dev-6cb9bec
      Access-Control-Allow-Origin:
      - "*"
      Expires:
      - Tue, 08 Jul 2025 00:33:19 GMT
      Onion-Location:
      - http://mempoolhqx4isw62xs7abwphsq7ldayuidyx2v2oethdhhj6mlo2r6ad.onion/signet/api/tx/5795afe919ae2836b84c37db853d328cf96b5fe37557be58d1cd4c348aef7a70
      Strict-Transport-Security:
      - max-age=63072000; includeSubDomains; preload
      Content-Security-Policy:
      - frame-ancestors 'self'
      Pragma:
      - public
    body:
      encoding: ASCII-8BIT
      string: '{"txid":"5795afe919ae2836b84c37db853d328cf96b5fe37557be58d1cd4c348aef7a70","version":1,"locktime":0,"vin":[{"txid":"68fdc641be734ea01e401f7efc987951624c70130abf5b998d186010b53a5d58","vout":585,"prevout":{"scriptpubkey":"76a91420d12ce0dba3181808731625dffd2ec92036ef0b88ac","scriptpubkey_asm":"OP_DUP
        OP_HASH160 OP_PUSHBYTES_20 20d12ce0dba3181808731625dffd2ec92036ef0b OP_EQUALVERIFY
        OP_CHECKSIG","scriptpubkey_type":"p2pkh","scriptpubkey_address":"miWUVwvAChPzRkXKiYLfcNejxBteZwrNdF","value":99414},"scriptsig":"473044022073b52772f0bebbdd34c287a158d411712d1c912991258720d615a7c3511ee0e902205226c9750e2b46e24517c134e3ec1e6ceed893a8ac7e8510ee3b24562e67e5be01210340f40ba52e2c315ead79fe581a9503f8550cc45a01f79c85ba8d74f6f2f997e2","scriptsig_asm":"OP_PUSHBYTES_71
        3044022073b52772f0bebbdd34c287a158d411712d1c912991258720d615a7c3511ee0e902205226c9750e2b46e24517c134e3ec1e6ceed893a8ac7e8510ee3b24562e67e5be01
        OP_PUSHBYTES_33 0340f40ba52e2c315ead79fe581a9503f8550cc45a01f79c85ba8d74f6f2f997e2","is_coinbase":false,"sequence":4294967295}],"vout":[{"scriptpubkey":"76a9141db2d75086f1343f2949dc12cc88324464b9214488ac","scriptpubkey_asm":"OP_DUP
        OP_HASH160 OP_PUSHBYTES_20 1db2d75086f1343f2949dc12cc88324464b92144 OP_EQUALVERIFY
        OP_CHECKSIG","scriptpubkey_type":"p2pkh","scriptpubkey_address":"miDz8iHf2K3uC6DFdj6MovQSw276ow5eKD","value":1000},{"scriptpubkey":"76a91420d12ce0dba3181808731625dffd2ec92036ef0b88ac","scriptpubkey_asm":"OP_DUP
        OP_HASH160 OP_PUSHBYTES_20 20d12ce0dba3181808731625dffd2ec92036ef0b OP_EQUALVERIFY
        OP_CHECKSIG","scriptpubkey_type":"p2pkh","scriptpubkey_address":"miWUVwvAChPzRkXKiYLfcNejxBteZwrNdF","value":98114}],"size":225,"weight":900,"sigops":8,"fee":300,"status":{"confirmed":true,"block_height":259504,"block_hash":"0000000ad3a575df0f6ba9f730a03d5fd3f5f7e035a566c06430f0ea6bf70352","block_time":1751866966}}'
  recorded_at: Tue, 08 Jul 2025 00:33:20 GMT
- request:
    method: post
    uri: https://mempool.space/signet/api/tx
    body:
      encoding: US-ASCII
      string: 0100000001707aef8a344ccdd158be5775e35f6bf98c323d85db374cb83628ae19e9af9557010000006a473044022015c98dcbe12f9cf2f6eaceed4f053063b31c4fb29e03bb37b6256eebb57c7db602206db1f54df68e28b3ed5364531ba92c344f7ec7af993d227e15bbc9aabee6645101210340f40ba52e2c315ead79fe581a9503f8550cc45a01f79c85ba8d74f6f2f997e2ffffffff02e8030000000000001976a9141db2d75086f1343f2949dc12cc88324464b9214488acf0760100000000001976a91420d12ce0dba3181808731625dffd2ec92036ef0b88ac00000000
    headers:
      Content-Type:
      - text/plain
      Accept-Encoding:
      - gzip;q=1.0,deflate;q=0.6,identity;q=0.3
      Accept:
      - "*/*"
      User-Agent:
      - Ruby
      Host:
      - mempool.space
  response:
    status:
      code: 200
      message: OK
    headers:
      Server:
      - nginx
      Date:
      - Tue, 08 Jul 2025 00:33:21 GMT
      Content-Type:
      - text/plain
      Content-Length:
      - '64'
      Connection:
      - keep-alive
      Cache-Control:
      - no-cache
      - public
      X-Powered-By:
      - mempool-electrs 3.2.0-dev-6cb9bec
      Access-Control-Allow-Origin:
      - "*"
      Expires:
      - Tue, 08 Jul 2025 00:33:20 GMT
      Onion-Location:
      - http://mempoolhqx4isw62xs7abwphsq7ldayuidyx2v2oethdhhj6mlo2r6ad.onion/signet/api/tx
      Strict-Transport-Security:
      - max-age=63072000; includeSubDomains; preload
      Content-Security-Policy:
      - frame-ancestors 'self'
      Pragma:
      - public
      Vary:
      - Accept-Language
      - Cookie
    body:
      encoding: UTF-8
      string: 3cd10f1ab136c2ca4e12acc38c52d779245d7c4a8d38589786c4565949c365a5
  recorded_at: Tue, 08 Jul 2025 00:33:21 GMT
recorded_with: VCR 6.3.1
